{
  "contractName": "RPS",
  "abi": [
    {
      "constant": false,
      "inputs": [],
      "name": "register",
      "outputs": [],
      "payable": true,
      "stateMutability": "payable",
      "type": "function"
    },
    {
      "constant": false,
      "inputs": [
        {
          "name": "choice",
          "type": "string"
        },
        {
          "name": "randStr",
          "type": "string"
        }
      ],
      "name": "lock",
      "outputs": [
        {
          "name": "",
          "type": "bool"
        }
      ],
      "payable": false,
      "stateMutability": "nonpayable",
      "type": "function"
    },
    {
      "constant": false,
      "inputs": [
        {
          "name": "choice",
          "type": "string"
        },
        {
          "name": "randStr",
          "type": "string"
        }
      ],
      "name": "open",
      "outputs": [
        {
          "name": "",
          "type": "bool"
        }
      ],
      "payable": false,
      "stateMutability": "nonpayable",
      "type": "function"
    },
    {
      "constant": false,
      "inputs": [],
      "name": "processRewards",
      "outputs": [],
      "payable": false,
      "stateMutability": "nonpayable",
      "type": "function"
    },
    {
      "constant": true,
      "inputs": [],
      "name": "getUser1",
      "outputs": [
        {
          "name": "",
          "type": "address"
        }
      ],
      "payable": false,
      "stateMutability": "view",
      "type": "function"
    },
    {
      "constant": true,
      "inputs": [],
      "name": "getUser2",
      "outputs": [
        {
          "name": "",
          "type": "address"
        }
      ],
      "payable": false,
      "stateMutability": "view",
      "type": "function"
    },
    {
      "constant": true,
      "inputs": [],
      "name": "getState",
      "outputs": [
        {
          "name": "",
          "type": "int256"
        }
      ],
      "payable": false,
      "stateMutability": "view",
      "type": "function"
    }
  ],
  "bytecode": "0x6060604052341561000f57600080fd5b6118d88061001e6000396000f300606060405260043610610083576000357c0100000000000000000000000000000000000000000000000000000000900463ffffffff1680631865c57d146100885780631aa3a008146100b157806336d81f07146100bb57806339110b78146101105780634406face146101c85780639e01f9b914610280578063f9fc0d07146102d5575b600080fd5b341561009357600080fd5b61009b6102ea565b6040518082815260200191505060405180910390f35b6100b9610400565b005b34156100c657600080fd5b6100ce6105d8565b604051808273ffffffffffffffffffffffffffffffffffffffff1673ffffffffffffffffffffffffffffffffffffffff16815260200191505060405180910390f35b341561011b57600080fd5b6101ae600480803590602001908201803590602001908080601f0160208091040260200160405190810160405280939291908181526020018383808284378201915050505050509190803590602001908201803590602001908080601f01602080910402602001604051908101604052809392919081815260200183838082843782019150505050505091905050610601565b604051808215151515815260200191505060405180910390f35b34156101d357600080fd5b610266600480803590602001908201803590602001908080601f0160208091040260200160405190810160405280939291908181526020018383808284378201915050505050509190803590602001908201803590602001908080601f01602080910402602001604051908101604052809392919081815260200183838082843782019150505050505091905050610f6e565b604051808215151515815260200191505060405180910390f35b341561028b57600080fd5b6102936114fa565b604051808273ffffffffffffffffffffffffffffffffffffffff1673ffffffffffffffffffffffffffffffffffffffff16815260200191505060405180910390f35b34156102e057600080fd5b6102e8611524565b005b60008060006001026000191660025460001916148015610317575060006001026000191660035460001916145b1561032557600091506103fc565b6000600102600019166002546000191614801561035057506000600102600019166003546000191614155b1561035e57600191506103fc565b6000600102600019166002546000191614158015610389575060006001026000191660035460001916145b1561039757600291506103fc565b600554600a60045402016101900190506000600654141580156103bf57506078600654420310155b156103f857600060045414156103dc576005546028016101900190505b600060055414156103f7576004600a60045402016101900190505b5b8091505b5090565b6000809054906101000a900473ffffffffffffffffffffffffffffffffffffffff1673ffffffffffffffffffffffffffffffffffffffff163373ffffffffffffffffffffffffffffffffffffffff16141580156104ab5750600160009054906101000a900473ffffffffffffffffffffffffffffffffffffffff1673ffffffffffffffffffffffffffffffffffffffff163373ffffffffffffffffffffffffffffffffffffffff1614155b15156104b657600080fd5b674563918244f4000034101515156104cd57600080fd5b60008060009054906101000a900473ffffffffffffffffffffffffffffffffffffffff1673ffffffffffffffffffffffffffffffffffffffff16141561055257336000806101000a81548173ffffffffffffffffffffffffffffffffffffffff021916908373ffffffffffffffffffffffffffffffffffffffff1602179055506105d6565b6000600160009054906101000a900473ffffffffffffffffffffffffffffffffffffffff1673ffffffffffffffffffffffffffffffffffffffff1614156105d55733600160006101000a81548173ffffffffffffffffffffffffffffffffffffffff021916908373ffffffffffffffffffffffffffffffffffffffff1602179055505b5b565b60008060009054906101000a900473ffffffffffffffffffffffffffffffffffffffff16905090565b6000806000809054906101000a900473ffffffffffffffffffffffffffffffffffffffff1673ffffffffffffffffffffffffffffffffffffffff163373ffffffffffffffffffffffffffffffffffffffff1614806106ac5750600160009054906101000a900473ffffffffffffffffffffffffffffffffffffffff1673ffffffffffffffffffffffffffffffffffffffff163373ffffffffffffffffffffffffffffffffffffffff16145b15156106b757600080fd5b600060010260025460001916141580156106db575060006001026003546000191614155b15156106e657600080fd5b8360405180807f726f636b000000000000000000000000000000000000000000000000000000008152506004019050604051809103902060001916816040518082805190602001908083835b6020831015156107575780518252602082019150602081019050602083039250610732565b6001836020036101000a0380198251168184511680821785525050505050509050019150506040518091039020600019161480610832575060405180807f70617065720000000000000000000000000000000000000000000000000000008152506005019050604051809103902060001916816040518082805190602001908083835b6020831015156107ff57805182526020820191506020810190506020830392506107da565b6001836020036101000a038019825116818451168082178552505050505050905001915050604051809103902060001916145b806108db575060405180807f73636973736f72730000000000000000000000000000000000000000000000008152506008019050604051809103902060001916816040518082805190602001908083835b6020831015156108a85780518252602082019150602081019050602083039250610883565b6001836020036101000a038019825116818451168082178552505050505050905001915050604051809103902060001916145b15156108e657600080fd5b836040518082805190602001908083835b60208310151561091c57805182526020820191506020810190506020830392506108f7565b6001836020036101000a0380198251168184511680821785525050505050509050019150506040518091039020856040518082805190602001908083835b60208310151561097f578051825260208201915060208101905060208303925061095a565b6001836020036101000a038019825116818451168082178552505050505050905001915050604051809103902018604051808260001916600019168152602001915050604051809103902091506000809054906101000a900473ffffffffffffffffffffffffffffffffffffffff1673ffffffffffffffffffffffffffffffffffffffff163373ffffffffffffffffffffffffffffffffffffffff161415610c96576002546000191682600019161415610c955760405180807f726f636b000000000000000000000000000000000000000000000000000000008152506004019050604051809103902060001916856040518082805190602001908083835b602083101515610aa35780518252602082019150602081019050602083039250610a7e565b6001836020036101000a0380198251168184511680821785525050505050509050019150506040518091039020600019161415610afe57600160048190555060006006541415610af557426006819055505b60019250610f66565b60405180807f70617065720000000000000000000000000000000000000000000000000000008152506005019050604051809103902060001916856040518082805190602001908083835b602083101515610b6e5780518252602082019150602081019050602083039250610b49565b6001836020036101000a0380198251168184511680821785525050505050509050019150506040518091039020600019161415610bc957600260048190555060006006541415610bc057426006819055505b60019250610f66565b60405180807f73636973736f72730000000000000000000000000000000000000000000000008152506008019050604051809103902060001916856040518082805190602001908083835b602083101515610c395780518252602082019150602081019050602083039250610c14565b6001836020036101000a0380198251168184511680821785525050505050509050019150506040518091039020600019161415610c9457600360048190555060006006541415610c8b57426006819055505b60019250610f66565b5b5b600160009054906101000a900473ffffffffffffffffffffffffffffffffffffffff1673ffffffffffffffffffffffffffffffffffffffff163373ffffffffffffffffffffffffffffffffffffffff161415610f61576003546000191682600019161415610f605760405180807f726f636b000000000000000000000000000000000000000000000000000000008152506004019050604051809103902060001916856040518082805190602001908083835b602083101515610d6e5780518252602082019150602081019050602083039250610d49565b6001836020036101000a0380198251168184511680821785525050505050509050019150506040518091039020600019161415610dc957600160058190555060006006541415610dc057426006819055505b60019250610f66565b60405180807f70617065720000000000000000000000000000000000000000000000000000008152506005019050604051809103902060001916856040518082805190602001908083835b602083101515610e395780518252602082019150602081019050602083039250610e14565b6001836020036101000a0380198251168184511680821785525050505050509050019150506040518091039020600019161415610e9457600260058190555060006006541415610e8b57426006819055505b60019250610f66565b60405180807f73636973736f72730000000000000000000000000000000000000000000000008152506008019050604051809103902060001916856040518082805190602001908083835b602083101515610f045780518252602082019150602081019050602083039250610edf565b6001836020036101000a0380198251168184511680821785525050505050509050019150506040518091039020600019161415610f5f57600360058190555060006006541415610f5657426006819055505b60019250610f66565b5b5b600092505b505092915050565b60008060009054906101000a900473ffffffffffffffffffffffffffffffffffffffff1673ffffffffffffffffffffffffffffffffffffffff163373ffffffffffffffffffffffffffffffffffffffff1614806110185750600160009054906101000a900473ffffffffffffffffffffffffffffffffffffffff1673ffffffffffffffffffffffffffffffffffffffff163373ffffffffffffffffffffffffffffffffffffffff16145b151561102357600080fd5b8260405180807f726f636b000000000000000000000000000000000000000000000000000000008152506004019050604051809103902060001916816040518082805190602001908083835b602083101515611094578051825260208201915060208101905060208303925061106f565b6001836020036101000a038019825116818451168082178552505050505050905001915050604051809103902060001916148061116f575060405180807f70617065720000000000000000000000000000000000000000000000000000008152506005019050604051809103902060001916816040518082805190602001908083835b60208310151561113c5780518252602082019150602081019050602083039250611117565b6001836020036101000a038019825116818451168082178552505050505050905001915050604051809103902060001916145b80611218575060405180807f73636973736f72730000000000000000000000000000000000000000000000008152506008019050604051809103902060001916816040518082805190602001908083835b6020831015156111e557805182526020820191506020810190506020830392506111c0565b6001836020036101000a038019825116818451168082178552505050505050905001915050604051809103902060001916145b151561122357600080fd5b6000809054906101000a900473ffffffffffffffffffffffffffffffffffffffff1673ffffffffffffffffffffffffffffffffffffffff163373ffffffffffffffffffffffffffffffffffffffff1614801561128c575060006001026000191660025460001916145b1561138857826040518082805190602001908083835b6020831015156112c757805182526020820191506020810190506020830392506112a2565b6001836020036101000a0380198251168184511680821785525050505050509050019150506040518091039020846040518082805190602001908083835b60208310151561132a5780518252602082019150602081019050602083039250611305565b6001836020036101000a038019825116818451168082178552505050505050905001915050604051809103902018604051808260001916600019168152602001915050604051809103902060028160001916905550600191506114f3565b600160009054906101000a900473ffffffffffffffffffffffffffffffffffffffff1673ffffffffffffffffffffffffffffffffffffffff163373ffffffffffffffffffffffffffffffffffffffff161480156113f2575060006001026000191660035460001916145b156114ee57826040518082805190602001908083835b60208310151561142d5780518252602082019150602081019050602083039250611408565b6001836020036101000a0380198251168184511680821785525050505050509050019150506040518091039020846040518082805190602001908083835b602083101515611490578051825260208201915060208101905060208303925061146b565b6001836020036101000a038019825116818451168082178552505050505050905001915050604051809103902018604051808260001916600019168152602001915050604051809103902060038160001916905550600191506114f3565b600091505b5092915050565b6000600160009054906101000a900473ffffffffffffffffffffffffffffffffffffffff16905090565b60006001026002546000191614158015611548575060006001026003546000191614155b151561155357600080fd5b6000600454141580156115695750600060055414155b8061157957506078600654420310155b151561158457600080fd5b6005546004541415611664576000809054906101000a900473ffffffffffffffffffffffffffffffffffffffff1673ffffffffffffffffffffffffffffffffffffffff166108fc6745400a8fd53300009081150290604051600060405180830381858888f1935050505015156115f957600080fd5b600160009054906101000a900473ffffffffffffffffffffffffffffffffffffffff1673ffffffffffffffffffffffffffffffffffffffff166108fc6745400a8fd53300009081150290604051600060405180830381858888f19350505050151561166357600080fd5b5b600160045414801561167857506003600554145b806116935750600260045414801561169257506001600554145b5b806116ae575060036004541480156116ad57506002600554145b5b806116bb57506000600554145b1561172a576000809054906101000a900473ffffffffffffffffffffffffffffffffffffffff1673ffffffffffffffffffffffffffffffffffffffff166108fc678a80151faa6600009081150290604051600060405180830381858888f19350505050151561172957600080fd5b5b600360045414801561173e57506001600554145b806117595750600160045414801561175857506002600554145b5b806117745750600260045414801561177357506003600554145b5b8061178157506000600454145b156117f157600160009054906101000a900473ffffffffffffffffffffffffffffffffffffffff1673ffffffffffffffffffffffffffffffffffffffff166108fc678a80151faa6600009081150290604051600060405180830381858888f1935050505015156117f057600080fd5b5b60008060006101000a81548173ffffffffffffffffffffffffffffffffffffffff021916908373ffffffffffffffffffffffffffffffffffffffff1602179055506000600160006101000a81548173ffffffffffffffffffffffffffffffffffffffff021916908373ffffffffffffffffffffffffffffffffffffffff1602179055506000600102600281600019169055506000600102600381600019169055506000600481905550600060058190555060006006819055505600a165627a7a72305820f3f195dfaf9e6501ff6c3eed89580ffca37d0bb689ed7cf3e2ec8417b8c54e6f0029",
  "source": "pragma solidity ^0.4.17;\r\n\r\ncontract RPS {\r\n\t// Rock =0, Paper = 1, Scissors = 2\r\n\taddress user1;\r\n\taddress user2;\r\n\tbytes32 hash1;\r\n\tbytes32 hash2;\r\n\tint claimed1;\r\n\tint claimed2;\r\n\tuint firstRevealTime;\r\n\r\n\t// Check if required minimum amount is present\r\n\tmodifier checkbalance() {\r\n\t\trequire(msg.value>=5000000000000000000);\r\n\t\t_;\r\n\t}\r\n\t// Check if user is already registered\r\n\tmodifier isRegistered() {\r\n\t\trequire(msg.sender==user1 || msg.sender==user2);\r\n\t\t_;\r\n\t}\r\n\t// Check if user is already registered\r\n\tmodifier isNotRegistered() {\r\n\t\trequire(msg.sender!=user1 && msg.sender!=user2);\r\n\t\t_;\r\n\t}\r\n\t// Check if both users have locked their choices, so the game can go to reveal stage\r\n\tmodifier bothLocked(){\r\n\t\trequire( hash1!=0 && hash2!=0);\r\n\t\t_;\r\n\t}\r\n\t// Check if both users have locked their choices, so the game can go to reveal stage\r\n\tmodifier bothClaimed(){\r\n\t\trequire((claimed1!=0 && claimed2!=0) || (now-firstRevealTime)>=120);\r\n\t\t_;\r\n\t}\r\n\t// Check if string is valid\r\n\tmodifier validChoice(string choice){\r\n\t\trequire(keccak256(choice) == keccak256(\"rock\") || keccak256(choice) == keccak256(\"paper\") || keccak256(choice) == keccak256(\"scissors\"));\r\n\t\t_;\r\n\t}\r\n\r\n\r\n\tfunction register() public payable isNotRegistered checkbalance{\r\n\t\tif(user1==0){\r\n\t\t\tuser1 = msg.sender;\r\n\t\t}\r\n\t\telse {\r\n\t\t\tif(user2==0)\r\n\t\t\t\tuser2 = msg.sender;\r\n\t\t}\r\n\t}\r\n\tfunction lock(string choice,string randStr) public isRegistered validChoice(choice) returns (bool) {\r\n\t\tif(msg.sender ==user1 && hash1==bytes32(0)){\r\n\t\t\thash1 = keccak256(keccak256(choice) ^ keccak256(randStr));\r\n\t\t\treturn true;\r\n\t\t}\r\n\t\tif(msg.sender ==user2 && hash2==bytes32(0)){\r\n\t\t\thash2 = keccak256(keccak256(choice) ^ keccak256(randStr));\r\n\t\t\treturn true;\r\n\t\t}\r\n\t\treturn false;\r\n\t}\r\n\tfunction open(string choice,string randStr) public isRegistered bothLocked validChoice(choice) returns (bool) {\r\n\t\tbytes32 tempHash = keccak256(keccak256(choice) ^ keccak256(randStr));\r\n\t\tif(msg.sender ==user1){\r\n\t\t\tif(tempHash==hash1){\r\n\t\t\t\tif(keccak256(choice)==keccak256(\"rock\")){\r\n\t\t\t\t\tclaimed1 = 1;\r\n\t\t\t\t\tif(firstRevealTime==0)\r\n\t\t\t\t\t\tfirstRevealTime = now;\r\n\t\t\t\t\treturn true;\r\n\t\t\t\t}\r\n\t\t\t\tif(keccak256(choice)==keccak256(\"paper\")){\r\n\t\t\t\t\tclaimed1 = 2;\r\n\t\t\t\t\tif(firstRevealTime==0)\r\n\t\t\t\t\t\tfirstRevealTime = now;\r\n\t\t\t\t\treturn true;\r\n\t\t\t\t}\r\n\t\t\t\tif(keccak256(choice)==keccak256(\"scissors\")){\r\n\t\t\t\t\tclaimed1 = 3;\r\n\t\t\t\t\tif(firstRevealTime==0)\r\n\t\t\t\t\t\tfirstRevealTime = now;\r\n\t\t\t\t\treturn true;\r\n\t\t\t\t}\r\n\t\t\t}\r\n\t\t}\r\n\t\tif(msg.sender ==user2){\r\n\t\t\tif(tempHash==hash2){\r\n\t\t\t\tif(keccak256(choice)==keccak256(\"rock\")){\r\n\t\t\t\t\tclaimed2 = 1;\r\n\t\t\t\t\tif(firstRevealTime==0)\r\n\t\t\t\t\t\tfirstRevealTime = now;\r\n\t\t\t\t\treturn true;\r\n\t\t\t\t}\r\n\t\t\t\tif(keccak256(choice)==keccak256(\"paper\")){\r\n\t\t\t\t\tclaimed2 = 2;\r\n\t\t\t\t\tif(firstRevealTime==0)\r\n\t\t\t\t\t\tfirstRevealTime = now;\r\n\t\t\t\t\treturn true;\r\n\t\t\t\t}\r\n\t\t\t\tif(keccak256(choice)==keccak256(\"scissors\")){\r\n\t\t\t\t\tclaimed2 = 3;\r\n\t\t\t\t\tif(firstRevealTime==0)\r\n\t\t\t\t\t\tfirstRevealTime = now;\r\n\t\t\t\t\treturn true;\r\n\t\t\t\t}\r\n\t\t\t}\r\n\t\t}\r\n\t\treturn false;\r\n\t}\r\n\r\n\tfunction processRewards() public bothLocked bothClaimed{\r\n\t\t// In case of no result, send half money to either parties\r\n\t\tif(claimed1==claimed2){\r\n\t\t\tuser1.transfer(4990000000000000000);\r\n\t\t\tuser2.transfer(4990000000000000000);\r\n\t\t}\r\n\t\t// 3 choices in which user 1 wins\r\n\t\tif((claimed1==1 && claimed2==3) || (claimed1==2 && claimed2==1) || (claimed1==3 && claimed2==2) || claimed2==0)\r\n\t\t\tuser1.transfer(9980000000000000000);\r\n\t\t// 3 choices in which user 1 wins\r\n\t\tif((claimed1==3 && claimed2==1) || (claimed1==1 && claimed2==2) || (claimed1==2 && claimed2==3) || claimed1==0)\r\n\t\t\tuser2.transfer(9980000000000000000);\r\n\t\t// Reset all variables\r\n\t\tuser1 = 0;\r\n\t\tuser2 = 0;\r\n\t\thash1 = bytes32(0);\r\n\t\thash2 = bytes32(0);\r\n\t\tclaimed1 = 0;\r\n\t\tclaimed2 = 0;\r\n\t\tfirstRevealTime = 0;\r\n\t}\r\n\t// Function to get user 1\r\n\tfunction getUser1() public view returns (address) {\r\n\t  \treturn user1;\r\n\t}\r\n\t// Function to get user 2\r\n\tfunction getUser2() public view returns (address) {\r\n\t  \treturn user2;\r\n\t}\r\n\t// Function to get state of game\r\n\t/* States : \t\t\t0  \tUsers have not locked yet\r\n\t\t\t\t\t\t\t1  \tUser 2 has locked, user 1 hasn't\r\n\t\t\t\t\t\t\t2  \tUser 1 has locked, user 2 hasn't\r\n\t\t\t\t\t\t\t421\tBoth users have locked, user1 claimed 'paper', user2 claimed 'rock'\r\n\t\t\t\t\t\t\t413\tBoth users have locked, user1 claimed 'rock', user2 claimed 'scissors'\r\n\t\t\t\t\t\t\t402 Both users have locked, user1 hasn't claimed anything yet, user2 claimed 'scissors'\r\n\t\t\t\t\t\t\t441 Both users have locked, user1 coulnd't claim (timed-out), user2 claimed 'rock'\r\n\t*/\r\n\tfunction getState() public view returns (int) {\r\n\t  \tif(hash1==bytes32(0) && hash2==bytes32(0))\r\n\t  \t\treturn 0;\r\n\t  \tif(hash1==bytes32(0) && hash2!=bytes32(0))\r\n\t  \t\treturn 1;\r\n\t  \tif(hash1!=bytes32(0) && hash2==bytes32(0))\r\n\t  \t\treturn 2;\r\n\t  \t// Both users have locked at this point of time, return values if claimed\r\n\t  \tint ans = 400 + (claimed1*10 + claimed2);\r\n\r\n\t  \t// Check the case of a user not able to claim a choice for long\r\n\t  \tif(firstRevealTime!=0 && (now-firstRevealTime)>=120){\r\n\t  \t\tif(claimed1 == 0)\r\n\t  \t\t\tans = 400 + (40 + claimed2);\r\n\t  \t\tif(claimed2 == 0)\r\n\t  \t\t\tans = 400 + (claimed1*10 + 4);\r\n\t  \t}\r\n\r\n\t  \treturn ans;\r\n\t}\r\n}\r\n",
  "sourcePath": "C:\\Users\\Taylor Lindman\\Rock-Paper-ETH\\contracts\\Ethereum-Rock-Paper-Scissors.sol",
  "compiler": {
    "name": "solc",
    "version": "0.4.19+commit.c4cbbb05.Emscripten.clang"
  },
  "schemaVersion": "2.0.0",
  "updatedAt": "2018-03-21T02:51:53.447Z"
}